{
  "_format": "hh-sol-artifact-1",
  "contractName": "Welcomy",
  "sourceName": "contracts/Welcomy.sol",
  "abi": [
    {
      "inputs": [],
      "stateMutability": "nonpayable",
      "type": "constructor"
    },
    {
      "anonymous": false,
      "inputs": [
        {
          "indexed": true,
          "internalType": "address",
          "name": "owner",
          "type": "address"
        },
        {
          "indexed": true,
          "internalType": "address",
          "name": "approved",
          "type": "address"
        },
        {
          "indexed": true,
          "internalType": "uint256",
          "name": "tokenId",
          "type": "uint256"
        }
      ],
      "name": "Approval",
      "type": "event"
    },
    {
      "anonymous": false,
      "inputs": [
        {
          "indexed": true,
          "internalType": "address",
          "name": "owner",
          "type": "address"
        },
        {
          "indexed": true,
          "internalType": "address",
          "name": "operator",
          "type": "address"
        },
        {
          "indexed": false,
          "internalType": "bool",
          "name": "approved",
          "type": "bool"
        }
      ],
      "name": "ApprovalForAll",
      "type": "event"
    },
    {
      "anonymous": false,
      "inputs": [
        {
          "indexed": false,
          "internalType": "uint256",
          "name": "apartmentId",
          "type": "uint256"
        },
        {
          "indexed": false,
          "internalType": "bytes32",
          "name": "latitude",
          "type": "bytes32"
        },
        {
          "indexed": false,
          "internalType": "bytes32",
          "name": "longitude",
          "type": "bytes32"
        }
      ],
      "name": "NewApartment",
      "type": "event"
    },
    {
      "anonymous": false,
      "inputs": [
        {
          "indexed": false,
          "internalType": "uint256",
          "name": "ratingId",
          "type": "uint256"
        },
        {
          "indexed": false,
          "internalType": "uint256",
          "name": "reservationId",
          "type": "uint256"
        },
        {
          "indexed": false,
          "internalType": "uint8",
          "name": "rating",
          "type": "uint8"
        },
        {
          "indexed": false,
          "internalType": "string",
          "name": "message",
          "type": "string"
        }
      ],
      "name": "NewRating",
      "type": "event"
    },
    {
      "anonymous": false,
      "inputs": [
        {
          "indexed": false,
          "internalType": "uint256",
          "name": "reservationId",
          "type": "uint256"
        },
        {
          "indexed": false,
          "internalType": "uint256",
          "name": "apartmentId",
          "type": "uint256"
        },
        {
          "indexed": false,
          "internalType": "uint256",
          "name": "start",
          "type": "uint256"
        },
        {
          "indexed": false,
          "internalType": "uint256",
          "name": "end",
          "type": "uint256"
        }
      ],
      "name": "NewReservation",
      "type": "event"
    },
    {
      "anonymous": false,
      "inputs": [
        {
          "indexed": true,
          "internalType": "address",
          "name": "from",
          "type": "address"
        },
        {
          "indexed": true,
          "internalType": "address",
          "name": "to",
          "type": "address"
        },
        {
          "indexed": true,
          "internalType": "uint256",
          "name": "tokenId",
          "type": "uint256"
        }
      ],
      "name": "Transfer",
      "type": "event"
    },
    {
      "inputs": [
        {
          "internalType": "uint256",
          "name": "",
          "type": "uint256"
        },
        {
          "internalType": "uint256",
          "name": "",
          "type": "uint256"
        }
      ],
      "name": "apartmentUnavailableDates",
      "outputs": [
        {
          "internalType": "bool",
          "name": "",
          "type": "bool"
        }
      ],
      "stateMutability": "view",
      "type": "function"
    },
    {
      "inputs": [
        {
          "internalType": "uint256",
          "name": "",
          "type": "uint256"
        }
      ],
      "name": "apartments",
      "outputs": [
        {
          "internalType": "uint256",
          "name": "pricePerNight",
          "type": "uint256"
        },
        {
          "components": [
            {
              "internalType": "bytes32",
              "name": "latitude",
              "type": "bytes32"
            },
            {
              "internalType": "bytes32",
              "name": "longitude",
              "type": "bytes32"
            }
          ],
          "internalType": "struct Welcomy.Coordinates",
          "name": "coordinates",
          "type": "tuple"
        },
        {
          "internalType": "address",
          "name": "owner",
          "type": "address"
        }
      ],
      "stateMutability": "view",
      "type": "function"
    },
    {
      "inputs": [
        {
          "internalType": "address",
          "name": "to",
          "type": "address"
        },
        {
          "internalType": "uint256",
          "name": "tokenId",
          "type": "uint256"
        }
      ],
      "name": "approve",
      "outputs": [],
      "stateMutability": "nonpayable",
      "type": "function"
    },
    {
      "inputs": [
        {
          "internalType": "address",
          "name": "owner",
          "type": "address"
        }
      ],
      "name": "balanceOf",
      "outputs": [
        {
          "internalType": "uint256",
          "name": "",
          "type": "uint256"
        }
      ],
      "stateMutability": "view",
      "type": "function"
    },
    {
      "inputs": [
        {
          "internalType": "uint256",
          "name": "_apartmentId",
          "type": "uint256"
        },
        {
          "internalType": "address",
          "name": "_newOwner",
          "type": "address"
        }
      ],
      "name": "changeApartmentOwnership",
      "outputs": [],
      "stateMutability": "nonpayable",
      "type": "function"
    },
    {
      "inputs": [
        {
          "internalType": "uint256",
          "name": "_apartmentId",
          "type": "uint256"
        },
        {
          "internalType": "uint256",
          "name": "_newPrice",
          "type": "uint256"
        }
      ],
      "name": "changeApartmentPrice",
      "outputs": [],
      "stateMutability": "nonpayable",
      "type": "function"
    },
    {
      "inputs": [
        {
          "internalType": "uint256",
          "name": "tokenId",
          "type": "uint256"
        }
      ],
      "name": "getApproved",
      "outputs": [
        {
          "internalType": "address",
          "name": "",
          "type": "address"
        }
      ],
      "stateMutability": "view",
      "type": "function"
    },
    {
      "inputs": [
        {
          "internalType": "uint256",
          "name": "_apartmentId",
          "type": "uint256"
        }
      ],
      "name": "getCoordinates",
      "outputs": [
        {
          "components": [
            {
              "internalType": "bytes32",
              "name": "latitude",
              "type": "bytes32"
            },
            {
              "internalType": "bytes32",
              "name": "longitude",
              "type": "bytes32"
            }
          ],
          "internalType": "struct Welcomy.Coordinates",
          "name": "",
          "type": "tuple"
        }
      ],
      "stateMutability": "view",
      "type": "function"
    },
    {
      "inputs": [],
      "name": "getNumberOfApartments",
      "outputs": [
        {
          "internalType": "uint256",
          "name": "",
          "type": "uint256"
        }
      ],
      "stateMutability": "view",
      "type": "function"
    },
    {
      "inputs": [
        {
          "internalType": "address",
          "name": "owner",
          "type": "address"
        },
        {
          "internalType": "address",
          "name": "operator",
          "type": "address"
        }
      ],
      "name": "isApprovedForAll",
      "outputs": [
        {
          "internalType": "bool",
          "name": "",
          "type": "bool"
        }
      ],
      "stateMutability": "view",
      "type": "function"
    },
    {
      "inputs": [
        {
          "internalType": "bytes32",
          "name": "_latitude",
          "type": "bytes32"
        },
        {
          "internalType": "bytes32",
          "name": "_longitude",
          "type": "bytes32"
        },
        {
          "internalType": "uint256",
          "name": "_pricePerNight",
          "type": "uint256"
        }
      ],
      "name": "listApartment",
      "outputs": [],
      "stateMutability": "nonpayable",
      "type": "function"
    },
    {
      "inputs": [
        {
          "internalType": "uint256",
          "name": "_apartmentId",
          "type": "uint256"
        },
        {
          "internalType": "uint256",
          "name": "_dayStart",
          "type": "uint256"
        },
        {
          "internalType": "uint256",
          "name": "_monthStart",
          "type": "uint256"
        },
        {
          "internalType": "uint256",
          "name": "_yearStart",
          "type": "uint256"
        },
        {
          "internalType": "uint256",
          "name": "_dayEnd",
          "type": "uint256"
        },
        {
          "internalType": "uint256",
          "name": "_monthEnd",
          "type": "uint256"
        },
        {
          "internalType": "uint256",
          "name": "_yearEnd",
          "type": "uint256"
        }
      ],
      "name": "makeReservation",
      "outputs": [],
      "stateMutability": "payable",
      "type": "function"
    },
    {
      "inputs": [],
      "name": "name",
      "outputs": [
        {
          "internalType": "string",
          "name": "",
          "type": "string"
        }
      ],
      "stateMutability": "view",
      "type": "function"
    },
    {
      "inputs": [
        {
          "internalType": "uint256",
          "name": "tokenId",
          "type": "uint256"
        }
      ],
      "name": "ownerOf",
      "outputs": [
        {
          "internalType": "address",
          "name": "",
          "type": "address"
        }
      ],
      "stateMutability": "view",
      "type": "function"
    },
    {
      "inputs": [
        {
          "internalType": "uint256",
          "name": "_reservationId",
          "type": "uint256"
        },
        {
          "internalType": "uint8",
          "name": "_rating",
          "type": "uint8"
        },
        {
          "internalType": "string",
          "name": "_message",
          "type": "string"
        }
      ],
      "name": "rateStay",
      "outputs": [],
      "stateMutability": "nonpayable",
      "type": "function"
    },
    {
      "inputs": [
        {
          "internalType": "uint256",
          "name": "",
          "type": "uint256"
        }
      ],
      "name": "ratings",
      "outputs": [
        {
          "internalType": "uint256",
          "name": "reservationId",
          "type": "uint256"
        },
        {
          "internalType": "uint256",
          "name": "timestamp",
          "type": "uint256"
        },
        {
          "internalType": "uint8",
          "name": "rating",
          "type": "uint8"
        }
      ],
      "stateMutability": "view",
      "type": "function"
    },
    {
      "inputs": [
        {
          "internalType": "uint256",
          "name": "",
          "type": "uint256"
        }
      ],
      "name": "reservations",
      "outputs": [
        {
          "internalType": "uint256",
          "name": "apartmentId",
          "type": "uint256"
        },
        {
          "internalType": "uint256",
          "name": "start",
          "type": "uint256"
        },
        {
          "internalType": "uint256",
          "name": "end",
          "type": "uint256"
        }
      ],
      "stateMutability": "view",
      "type": "function"
    },
    {
      "inputs": [
        {
          "internalType": "address",
          "name": "from",
          "type": "address"
        },
        {
          "internalType": "address",
          "name": "to",
          "type": "address"
        },
        {
          "internalType": "uint256",
          "name": "tokenId",
          "type": "uint256"
        }
      ],
      "name": "safeTransferFrom",
      "outputs": [],
      "stateMutability": "nonpayable",
      "type": "function"
    },
    {
      "inputs": [
        {
          "internalType": "address",
          "name": "from",
          "type": "address"
        },
        {
          "internalType": "address",
          "name": "to",
          "type": "address"
        },
        {
          "internalType": "uint256",
          "name": "tokenId",
          "type": "uint256"
        },
        {
          "internalType": "bytes",
          "name": "data",
          "type": "bytes"
        }
      ],
      "name": "safeTransferFrom",
      "outputs": [],
      "stateMutability": "nonpayable",
      "type": "function"
    },
    {
      "inputs": [
        {
          "internalType": "address",
          "name": "operator",
          "type": "address"
        },
        {
          "internalType": "bool",
          "name": "approved",
          "type": "bool"
        }
      ],
      "name": "setApprovalForAll",
      "outputs": [],
      "stateMutability": "nonpayable",
      "type": "function"
    },
    {
      "inputs": [
        {
          "internalType": "bytes4",
          "name": "interfaceId",
          "type": "bytes4"
        }
      ],
      "name": "supportsInterface",
      "outputs": [
        {
          "internalType": "bool",
          "name": "",
          "type": "bool"
        }
      ],
      "stateMutability": "view",
      "type": "function"
    },
    {
      "inputs": [],
      "name": "symbol",
      "outputs": [
        {
          "internalType": "string",
          "name": "",
          "type": "string"
        }
      ],
      "stateMutability": "view",
      "type": "function"
    },
    {
      "inputs": [
        {
          "internalType": "uint256",
          "name": "tokenId",
          "type": "uint256"
        }
      ],
      "name": "tokenURI",
      "outputs": [
        {
          "internalType": "string",
          "name": "",
          "type": "string"
        }
      ],
      "stateMutability": "view",
      "type": "function"
    },
    {
      "inputs": [
        {
          "internalType": "address",
          "name": "from",
          "type": "address"
        },
        {
          "internalType": "address",
          "name": "to",
          "type": "address"
        },
        {
          "internalType": "uint256",
          "name": "tokenId",
          "type": "uint256"
        }
      ],
      "name": "transferFrom",
      "outputs": [],
      "stateMutability": "nonpayable",
      "type": "function"
    },
    {
      "inputs": [
        {
          "internalType": "address",
          "name": "",
          "type": "address"
        }
      ],
      "name": "unclaimedEth",
      "outputs": [
        {
          "internalType": "uint256",
          "name": "",
          "type": "uint256"
        }
      ],
      "stateMutability": "view",
      "type": "function"
    },
    {
      "inputs": [
        {
          "internalType": "uint256",
          "name": "_amount",
          "type": "uint256"
        }
      ],
      "name": "withdrawMoney",
      "outputs": [],
      "stateMutability": "nonpayable",
      "type": "function"
    }
  ],
  "bytecode": "0x60806040523480156200001157600080fd5b506040518060400160405280600781526020017f57656c636f6d79000000000000000000000000000000000000000000000000008152506040518060400160405280600481526020017f57454c4300000000000000000000000000000000000000000000000000000000815250816000908051906020019062000096929190620000b8565b508060019080519060200190620000af929190620000b8565b505050620001cd565b828054620000c69062000197565b90600052602060002090601f016020900481019282620000ea576000855562000136565b82601f106200010557805160ff191683800117855562000136565b8280016001018555821562000136579182015b828111156200013557825182559160200191906001019062000118565b5b50905062000145919062000149565b5090565b5b80821115620001645760008160009055506001016200014a565b5090565b7f4e487b7100000000000000000000000000000000000000000000000000000000600052602260045260246000fd5b60006002820490506001821680620001b057607f821691505b60208210811415620001c757620001c662000168565b5b50919050565b6155bc80620001dd6000396000f3fe6080604052600436106101815760003560e01c80635d30e84d116100d1578063ae78a08a1161008a578063c87b56dd11610064578063c87b56dd146105d1578063d6288b9c1461060e578063d67660c214610639578063e985e9c51461066257610181565b8063ae78a08a1461054f578063b7ae6d4d1461058c578063b88d4fde146105a857610181565b80635d30e84d146104035780636352211e1461044257806370a082311461047f57806395d89b41146104bc578063a22cb465146104e7578063abb8be171461051057610181565b80631fd3ff511161013e57806342842e0e1161011857806342842e0e1461035f5780634d559fa2146103885780634eacb84d146103b157806354876921146103da57610181565b80631fd3ff51146102d057806323b872dd1461030d578063241b59a51461033657610181565b806301ffc9a714610186578063067cf832146101c357806306fdde0314610202578063081812fc1461022d578063095ea7b31461026a5780630bf3781814610293575b600080fd5b34801561019257600080fd5b506101ad60048036038101906101a89190613550565b61069f565b6040516101ba9190613598565b60405180910390f35b3480156101cf57600080fd5b506101ea60048036038101906101e591906135e9565b610781565b6040516101f993929190613625565b60405180910390f35b34801561020e57600080fd5b506102176107bb565b60405161022491906136f5565b60405180910390f35b34801561023957600080fd5b50610254600480360381019061024f91906135e9565b61084d565b6040516102619190613758565b60405180910390f35b34801561027657600080fd5b50610291600480360381019061028c919061379f565b610893565b005b34801561029f57600080fd5b506102ba60048036038101906102b591906135e9565b6109ab565b6040516102c79190613827565b60405180910390f35b3480156102dc57600080fd5b506102f760048036038101906102f29190613842565b610a45565b6040516103049190613598565b60405180910390f35b34801561031957600080fd5b50610334600480360381019061032f9190613882565b610a74565b005b34801561034257600080fd5b5061035d600480360381019061035891906138d5565b610ad4565b005b34801561036b57600080fd5b5061038660048036038101906103819190613882565b610bf1565b005b34801561039457600080fd5b506103af60048036038101906103aa9190613842565b610c11565b005b3480156103bd57600080fd5b506103d860048036038101906103d391906139b3565b610cf4565b005b3480156103e657600080fd5b5061040160048036038101906103fc91906135e9565b610f0f565b005b34801561040f57600080fd5b5061042a600480360381019061042591906135e9565b611097565b60405161043993929190613a36565b60405180910390f35b34801561044e57600080fd5b50610469600480360381019061046491906135e9565b6110de565b6040516104769190613758565b60405180910390f35b34801561048b57600080fd5b506104a660048036038101906104a19190613a6d565b611165565b6040516104b39190613a9a565b60405180910390f35b3480156104c857600080fd5b506104d161121d565b6040516104de91906136f5565b60405180910390f35b3480156104f357600080fd5b5061050e60048036038101906105099190613ae1565b6112af565b005b34801561051c57600080fd5b50610537600480360381019061053291906135e9565b6112c5565b60405161054693929190613b21565b60405180910390f35b34801561055b57600080fd5b5061057660048036038101906105719190613a6d565b61133d565b6040516105839190613a9a565b60405180910390f35b6105a660048036038101906105a19190613b58565b611355565b005b3480156105b457600080fd5b506105cf60048036038101906105ca9190613d2a565b61168e565b005b3480156105dd57600080fd5b506105f860048036038101906105f391906135e9565b6116f0565b60405161060591906136f5565b60405180910390f35b34801561061a57600080fd5b50610623611803565b6040516106309190613a9a565b60405180910390f35b34801561064557600080fd5b50610660600480360381019061065b9190613dd9565b611810565b005b34801561066e57600080fd5b5061068960048036038101906106849190613e2c565b611943565b6040516106969190613598565b60405180910390f35b60007f80ac58cd000000000000000000000000000000000000000000000000000000007bffffffffffffffffffffffffffffffffffffffffffffffffffffffff1916827bffffffffffffffffffffffffffffffffffffffffffffffffffffffff1916148061076a57507f5b5e139f000000000000000000000000000000000000000000000000000000007bffffffffffffffffffffffffffffffffffffffffffffffffffffffff1916827bffffffffffffffffffffffffffffffffffffffffffffffffffffffff1916145b8061077a5750610779826119d7565b5b9050919050565b6008818154811061079157600080fd5b90600052602060002090600302016000915090508060000154908060010154908060020154905083565b6060600080546107ca90613e9b565b80601f01602080910402602001604051908101604052809291908181526020018280546107f690613e9b565b80156108435780601f1061081857610100808354040283529160200191610843565b820191906000526020600020905b81548152906001019060200180831161082657829003601f168201915b5050505050905090565b600061085882611a41565b6004600083815260200190815260200160002060009054906101000a900473ffffffffffffffffffffffffffffffffffffffff169050919050565b600061089e826110de565b90508073ffffffffffffffffffffffffffffffffffffffff168373ffffffffffffffffffffffffffffffffffffffff16141561090f576040517f08c379a000000000000000000000000000000000000000000000000000000000815260040161090690613f3f565b60405180910390fd5b8073ffffffffffffffffffffffffffffffffffffffff1661092e611a8c565b73ffffffffffffffffffffffffffffffffffffffff16148061095d575061095c81610957611a8c565b611943565b5b61099c576040517f08c379a000000000000000000000000000000000000000000000000000000000815260040161099390613fd1565b60405180910390fd5b6109a68383611a94565b505050565b6109b36133e1565b60078054905082106109fa576040517f08c379a00000000000000000000000000000000000000000000000000000000081526004016109f19061403d565b60405180910390fd5b60078281548110610a0e57610a0d61405d565b5b9060005260206000209060040201600101604051806040016040529081600082015481526020016001820154815250509050919050565b600a6020528160005260406000206020528060005260406000206000915091509054906101000a900460ff1681565b610a85610a7f611a8c565b82611b4d565b610ac4576040517f08c379a0000000000000000000000000000000000000000000000000000000008152600401610abb906140fe565b60405180910390fd5b610acf838383611be2565b505050565b813373ffffffffffffffffffffffffffffffffffffffff1660078281548110610b0057610aff61405d565b5b906000526020600020906004020160030160009054906101000a900473ffffffffffffffffffffffffffffffffffffffff1673ffffffffffffffffffffffffffffffffffffffff1614610b88576040517f08c379a0000000000000000000000000000000000000000000000000000000008152600401610b7f9061416a565b60405180910390fd5b8160078481548110610b9d57610b9c61405d565b5b906000526020600020906004020160030160006101000a81548173ffffffffffffffffffffffffffffffffffffffff021916908373ffffffffffffffffffffffffffffffffffffffff160217905550505050565b610c0c8383836040518060200160405280600081525061168e565b505050565b813373ffffffffffffffffffffffffffffffffffffffff1660078281548110610c3d57610c3c61405d565b5b906000526020600020906004020160030160009054906101000a900473ffffffffffffffffffffffffffffffffffffffff1673ffffffffffffffffffffffffffffffffffffffff1614610cc5576040517f08c379a0000000000000000000000000000000000000000000000000000000008152600401610cbc9061416a565b60405180910390fd5b8160078481548110610cda57610cd961405d565b5b906000526020600020906004020160000181905550505050565b6008805490508410610d3b576040517f08c379a0000000000000000000000000000000000000000000000000000000008152600401610d32906141d6565b60405180910390fd5b610d44846110de565b73ffffffffffffffffffffffffffffffffffffffff163373ffffffffffffffffffffffffffffffffffffffff1614610db1576040517f08c379a0000000000000000000000000000000000000000000000000000000008152600401610da890614242565b60405180910390fd5b610dba42611edc565b60088581548110610dce57610dcd61405d565b5b90600052602060002090600302016002015411610dea57600080fd5b600b8360ff1610610e30576040517f08c379a0000000000000000000000000000000000000000000000000000000008152600401610e27906142ae565b60405180910390fd5b600960405180606001604052808681526020014281526020018560ff168152509080600181540180825580915050600190039060005260206000209060030201600090919091909150600082015181600001556020820151816001015560408201518160020160006101000a81548160ff021916908360ff1602179055505050610eb984611f08565b7f3fa72de0a51a81692323d059342460418b9a52c69d5360a58d3622de0082f3476001600980549050610eec91906142fd565b85858585604051610f0195949392919061435e565b60405180910390a150505050565b80600b60003373ffffffffffffffffffffffffffffffffffffffff1673ffffffffffffffffffffffffffffffffffffffff168152602001908152602001600020541015610f91576040517f08c379a0000000000000000000000000000000000000000000000000000000008152600401610f88906143f8565b60405180910390fd5b80600b60003373ffffffffffffffffffffffffffffffffffffffff1673ffffffffffffffffffffffffffffffffffffffff1681526020019081526020016000206000828254610fe091906142fd565b9250508190555060003373ffffffffffffffffffffffffffffffffffffffff168260405161100d90614449565b60006040518083038185875af1925050503d806000811461104a576040519150601f19603f3d011682016040523d82523d6000602084013e61104f565b606091505b5050905080611093576040517f08c379a000000000000000000000000000000000000000000000000000000000815260040161108a906144aa565b60405180910390fd5b5050565b600981815481106110a757600080fd5b90600052602060002090600302016000915090508060000154908060010154908060020160009054906101000a900460ff16905083565b6000806110ea83611f5b565b9050600073ffffffffffffffffffffffffffffffffffffffff168173ffffffffffffffffffffffffffffffffffffffff16141561115c576040517f08c379a000000000000000000000000000000000000000000000000000000000815260040161115390614516565b60405180910390fd5b80915050919050565b60008073ffffffffffffffffffffffffffffffffffffffff168273ffffffffffffffffffffffffffffffffffffffff1614156111d6576040517f08c379a00000000000000000000000000000000000000000000000000000000081526004016111cd906145a8565b60405180910390fd5b600360008373ffffffffffffffffffffffffffffffffffffffff1673ffffffffffffffffffffffffffffffffffffffff168152602001908152602001600020549050919050565b60606001805461122c90613e9b565b80601f016020809104026020016040519081016040528092919081815260200182805461125890613e9b565b80156112a55780601f1061127a576101008083540402835291602001916112a5565b820191906000526020600020905b81548152906001019060200180831161128857829003601f168201915b5050505050905090565b6112c16112ba611a8c565b8383611f98565b5050565b600781815481106112d557600080fd5b90600052602060002090600402016000915090508060000154908060010160405180604001604052908160008201548152602001600182015481525050908060030160009054906101000a900473ffffffffffffffffffffffffffffffffffffffff16905083565b600b6020528060005260406000206000915090505481565b600780549050871061139c576040517f08c379a00000000000000000000000000000000000000000000000000000000081526004016113939061403d565b60405180910390fd5b60006113a9858789612105565b905060006113b8838587612105565b90506113c342611edc565b82101580156113d157508181115b611410576040517f08c379a000000000000000000000000000000000000000000000000000000000815260040161140790614614565b60405180910390fd5b60006018603c80858561142391906142fd565b61142d9190614663565b6114379190614663565b6114419190614663565b9050600061144f8483612129565b905061145b8b826121d0565b61149a576040517f08c379a0000000000000000000000000000000000000000000000000000000008152600401611491906146e0565b60405180910390fd5b8160078c815481106114af576114ae61405d565b5b9060005260206000209060040201600001546114cb9190614700565b341461150c576040517f08c379a0000000000000000000000000000000000000000000000000000000008152600401611503906143f8565b60405180910390fd5b34600b600060078e815481106115255761152461405d565b5b906000526020600020906004020160030160009054906101000a900473ffffffffffffffffffffffffffffffffffffffff1673ffffffffffffffffffffffffffffffffffffffff1673ffffffffffffffffffffffffffffffffffffffff16815260200190815260200160002060008282546115a0919061475a565b92505081905550600060088054905090506115bb3382612259565b6115c58c83612277565b600860405180606001604052808e815260200187815260200186815250908060018154018082558091505060019003906000526020600020906003020160009091909190915060008201518160000155602082015181600101556040820151816002015550506000611636826122f0565b9050611642828261248a565b7ff691ce2a40e1af09ac14b0d8f475eb1edcc8a3b54e77e4404f4874136763b432828e888860405161167794939291906147b0565b60405180910390a150505050505050505050505050565b61169f611699611a8c565b83611b4d565b6116de576040517f08c379a00000000000000000000000000000000000000000000000000000000081526004016116d5906140fe565b60405180910390fd5b6116ea848484846124fe565b50505050565b60606116fb82611a41565b600060066000848152602001908152602001600020805461171b90613e9b565b80601f016020809104026020016040519081016040528092919081815260200182805461174790613e9b565b80156117945780601f1061176957610100808354040283529160200191611794565b820191906000526020600020905b81548152906001019060200180831161177757829003601f168201915b5050505050905060006117a561255a565b90506000815114156117bb5781925050506117fe565b6000825111156117f05780826040516020016117d8929190614831565b604051602081830303815290604052925050506117fe565b6117f984612571565b925050505b919050565b6000600780549050905090565b6007604051806060016040528083815260200160405180604001604052808781526020018681525081526020013373ffffffffffffffffffffffffffffffffffffffff168152509080600181540180825580915050600190039060005260206000209060040201600090919091909150600082015181600001556020820151816001016000820151816000015560208201518160010155505060408201518160030160006101000a81548173ffffffffffffffffffffffffffffffffffffffff021916908373ffffffffffffffffffffffffffffffffffffffff16021790555050507f5f64816e8d25fc4a2a655594bcd4b4537e90af4dee55145a75f5f710048d999d600160078054905061192591906142fd565b848460405161193693929190614864565b60405180910390a1505050565b6000600560008473ffffffffffffffffffffffffffffffffffffffff1673ffffffffffffffffffffffffffffffffffffffff16815260200190815260200160002060008373ffffffffffffffffffffffffffffffffffffffff1673ffffffffffffffffffffffffffffffffffffffff16815260200190815260200160002060009054906101000a900460ff16905092915050565b60007f01ffc9a7000000000000000000000000000000000000000000000000000000007bffffffffffffffffffffffffffffffffffffffffffffffffffffffff1916827bffffffffffffffffffffffffffffffffffffffffffffffffffffffff1916149050919050565b611a4a816125d9565b611a89576040517f08c379a0000000000000000000000000000000000000000000000000000000008152600401611a8090614516565b60405180910390fd5b50565b600033905090565b816004600083815260200190815260200160002060006101000a81548173ffffffffffffffffffffffffffffffffffffffff021916908373ffffffffffffffffffffffffffffffffffffffff160217905550808273ffffffffffffffffffffffffffffffffffffffff16611b07836110de565b73ffffffffffffffffffffffffffffffffffffffff167f8c5be1e5ebec7d5bd14f71427d1e84f3dd0314c0f7b2291e5b200ac8c7c3b92560405160405180910390a45050565b600080611b59836110de565b90508073ffffffffffffffffffffffffffffffffffffffff168473ffffffffffffffffffffffffffffffffffffffff161480611b9b5750611b9a8185611943565b5b80611bd957508373ffffffffffffffffffffffffffffffffffffffff16611bc18461084d565b73ffffffffffffffffffffffffffffffffffffffff16145b91505092915050565b8273ffffffffffffffffffffffffffffffffffffffff16611c02826110de565b73ffffffffffffffffffffffffffffffffffffffff1614611c58576040517f08c379a0000000000000000000000000000000000000000000000000000000008152600401611c4f9061490d565b60405180910390fd5b600073ffffffffffffffffffffffffffffffffffffffff168273ffffffffffffffffffffffffffffffffffffffff161415611cc8576040517f08c379a0000000000000000000000000000000000000000000000000000000008152600401611cbf9061499f565b60405180910390fd5b611cd5838383600161261a565b8273ffffffffffffffffffffffffffffffffffffffff16611cf5826110de565b73ffffffffffffffffffffffffffffffffffffffff1614611d4b576040517f08c379a0000000000000000000000000000000000000000000000000000000008152600401611d429061490d565b60405180910390fd5b6004600082815260200190815260200160002060006101000a81549073ffffffffffffffffffffffffffffffffffffffff02191690556001600360008573ffffffffffffffffffffffffffffffffffffffff1673ffffffffffffffffffffffffffffffffffffffff168152602001908152602001600020600082825403925050819055506001600360008473ffffffffffffffffffffffffffffffffffffffff1673ffffffffffffffffffffffffffffffffffffffff16815260200190815260200160002060008282540192505081905550816002600083815260200190815260200160002060006101000a81548173ffffffffffffffffffffffffffffffffffffffff021916908373ffffffffffffffffffffffffffffffffffffffff160217905550808273ffffffffffffffffffffffffffffffffffffffff168473ffffffffffffffffffffffffffffffffffffffff167fddf252ad1be2c89b69c2b068fc378daa952ba7f163c4a11628f55a4df523b3ef60405160405180910390a4611ed78383836001612740565b505050565b6000611f01611eea83612746565b611ef384612775565b611efc856127a4565b612105565b9050919050565b611f11816127d3565b6000600660008381526020019081526020016000208054611f3190613e9b565b905014611f5857600660008281526020019081526020016000206000611f579190613401565b5b50565b60006002600083815260200190815260200160002060009054906101000a900473ffffffffffffffffffffffffffffffffffffffff169050919050565b8173ffffffffffffffffffffffffffffffffffffffff168373ffffffffffffffffffffffffffffffffffffffff161415612007576040517f08c379a0000000000000000000000000000000000000000000000000000000008152600401611ffe90614a0b565b60405180910390fd5b80600560008573ffffffffffffffffffffffffffffffffffffffff1673ffffffffffffffffffffffffffffffffffffffff16815260200190815260200160002060008473ffffffffffffffffffffffffffffffffffffffff1673ffffffffffffffffffffffffffffffffffffffff16815260200190815260200160002060006101000a81548160ff0219169083151502179055508173ffffffffffffffffffffffffffffffffffffffff168373ffffffffffffffffffffffffffffffffffffffff167f17307eab39ab6107e8899845ad3d59bd9653f200f220920489ca2b5937696c31836040516120f89190613598565b60405180910390a3505050565b600062015180612116858585612921565b6121209190614700565b90509392505050565b606060008267ffffffffffffffff81111561214757612146613bff565b5b6040519080825280602002602001820160405280156121755781602001602082028036833780820191505090505b50905060005b838110156121c557848282815181106121975761219661405d565b5b60200260200101818152505062015180856121b2919061475a565b9450806121be90614a2b565b905061217b565b508091505092915050565b600080600090505b825181101561224d57600a600085815260200190815260200160002060008483815181106122095761220861405d565b5b6020026020010151815260200190815260200160002060009054906101000a900460ff161561223c576000915050612253565b8061224690614a2b565b90506121d8565b50600190505b92915050565b612273828260405180602001604052806000815250612a80565b5050565b60005b81518110156122eb576001600a600085815260200190815260200160002060008484815181106122ad576122ac61405d565b5b6020026020010151815260200190815260200160002060006101000a81548160ff021916908315150217905550806122e490614a2b565b905061227a565b505050565b60606000600883815481106123085761230761405d565b5b906000526020600020906003020160000154905061246361232884612adb565b6007838154811061233c5761233b61405d565b5b906000526020600020906004020160000154600784815481106123625761236161405d565b5b9060005260206000209060040201600101600001546040516020016123879190614a95565b604051602081830303815290604052600785815481106123aa576123a961405d565b5b9060005260206000209060040201600101600101546040516020016123cf9190614a95565b60405160208183030381529060405261240c600889815481106123f5576123f461405d565b5b906000526020600020906003020160010154612adb565b61243a60088a815481106124235761242261405d565b5b906000526020600020906003020160020154612adb565b60405160200161244f96959493929190614e87565b604051602081830303815290604052612bb3565b6040516020016124739190614f92565b604051602081830303815290604052915050919050565b612493826125d9565b6124d2576040517f08c379a00000000000000000000000000000000000000000000000000000000081526004016124c990615026565b60405180910390fd5b806006600084815260200190815260200160002090805190602001906124f9929190613441565b505050565b612509848484611be2565b61251584848484612d17565b612554576040517f08c379a000000000000000000000000000000000000000000000000000000000815260040161254b906150b8565b60405180910390fd5b50505050565b606060405180602001604052806000815250905090565b606061257c82611a41565b600061258661255a565b905060008151116125a657604051806020016040528060008152506125d1565b806125b084612adb565b6040516020016125c1929190614831565b6040516020818303038152906040525b915050919050565b60008073ffffffffffffffffffffffffffffffffffffffff166125fb83611f5b565b73ffffffffffffffffffffffffffffffffffffffff1614159050919050565b600181111561273a57600073ffffffffffffffffffffffffffffffffffffffff168473ffffffffffffffffffffffffffffffffffffffff16146126ae5780600360008673ffffffffffffffffffffffffffffffffffffffff1673ffffffffffffffffffffffffffffffffffffffff16815260200190815260200160002060008282546126a691906142fd565b925050819055505b600073ffffffffffffffffffffffffffffffffffffffff168373ffffffffffffffffffffffffffffffffffffffff16146127395780600360008573ffffffffffffffffffffffffffffffffffffffff1673ffffffffffffffffffffffffffffffffffffffff1681526020019081526020016000206000828254612731919061475a565b925050819055505b5b50505050565b50505050565b6000806000612762620151808561275d9190614663565b612eae565b8093508194508295505050505050919050565b6000806000612791620151808561278c9190614663565b612eae565b8093508195508294505050505050919050565b60008060006127c062015180856127bb9190614663565b612eae565b8095508193508294505050505050919050565b60006127de826110de565b90506127ee81600084600161261a565b6127f7826110de565b90506004600083815260200190815260200160002060006101000a81549073ffffffffffffffffffffffffffffffffffffffff02191690556001600360008373ffffffffffffffffffffffffffffffffffffffff1673ffffffffffffffffffffffffffffffffffffffff168152602001908152602001600020600082825403925050819055506002600083815260200190815260200160002060006101000a81549073ffffffffffffffffffffffffffffffffffffffff021916905581600073ffffffffffffffffffffffffffffffffffffffff168273ffffffffffffffffffffffffffffffffffffffff167fddf252ad1be2c89b69c2b068fc378daa952ba7f163c4a11628f55a4df523b3ef60405160405180910390a461291d816000846001612740565b5050565b60006107b284101561293257600080fd5b600084905060008490506000849050600062253d8c60046064600c600e8761295a91906150e2565b6129649190615176565b6113248861297291906151e0565b61297c91906151e0565b6129869190615176565b60036129929190615274565b61299c9190615176565b600c80600c600e886129ae91906150e2565b6129b89190615176565b6129c29190615274565b6002876129cf91906150e2565b6129d991906150e2565b61016f6129e69190615274565b6129f09190615176565b6004600c600e88612a0191906150e2565b612a0b9190615176565b6112c089612a1991906151e0565b612a2391906151e0565b6105b5612a309190615274565b612a3a9190615176565b617d4b86612a4891906150e2565b612a5291906151e0565b612a5c91906151e0565b612a6691906150e2565b612a7091906150e2565b9050809450505050509392505050565b612a8a838361304d565b612a976000848484612d17565b612ad6576040517f08c379a0000000000000000000000000000000000000000000000000000000008152600401612acd906150b8565b60405180910390fd5b505050565b606060006001612aea8461326b565b01905060008167ffffffffffffffff811115612b0957612b08613bff565b5b6040519080825280601f01601f191660200182016040528015612b3b5781602001600182028036833780820191505090505b509050600082602001820190505b600115612ba8578080600190039150507f3031323334353637383961626364656600000000000000000000000000000000600a86061a8153600a8581612b9257612b91614634565b5b0494506000851415612ba357612ba8565b612b49565b819350505050919050565b6060600082511415612bd657604051806020016040528060008152509050612d12565b60006040518060600160405280604081526020016155476040913990506000600360028551612c05919061475a565b612c0f9190614663565b6004612c1b9190614700565b67ffffffffffffffff811115612c3457612c33613bff565b5b6040519080825280601f01601f191660200182016040528015612c665781602001600182028036833780820191505090505b509050600182016020820185865187015b80821015612cd2576003820191508151603f8160121c168501518453600184019350603f81600c1c168501518453600184019350603f8160061c168501518453600184019350603f8116850151845360018401935050612c77565b5050600386510660018114612cee5760028114612d0157612d09565b603d6001830353603d6002830353612d09565b603d60018303535b50505080925050505b919050565b6000612d388473ffffffffffffffffffffffffffffffffffffffff166133be565b15612ea1578373ffffffffffffffffffffffffffffffffffffffff1663150b7a02612d61611a8c565b8786866040518563ffffffff1660e01b8152600401612d8394939291906153e0565b602060405180830381600087803b158015612d9d57600080fd5b505af1925050508015612dce57506040513d601f19601f82011682018060405250810190612dcb9190615441565b60015b612e51573d8060008114612dfe576040519150601f19603f3d011682016040523d82523d6000602084013e612e03565b606091505b50600081511415612e49576040517f08c379a0000000000000000000000000000000000000000000000000000000008152600401612e40906150b8565b60405180910390fd5b805181602001fd5b63150b7a0260e01b7bffffffffffffffffffffffffffffffffffffffffffffffffffffffff1916817bffffffffffffffffffffffffffffffffffffffffffffffffffffffff191614915050612ea6565b600190505b949350505050565b600080600080849050600062253d8c62010bd983612ecc91906151e0565b612ed691906151e0565b9050600062023ab1826004612eeb9190615274565b612ef59190615176565b9050600460038262023ab1612f0a9190615274565b612f1491906151e0565b612f1e9190615176565b82612f2991906150e2565b9150600062164b09600184612f3e91906151e0565b610fa0612f4b9190615274565b612f559190615176565b9050601f6004826105b5612f699190615274565b612f739190615176565b84612f7e91906150e2565b612f8891906151e0565b9250600061098f846050612f9c9190615274565b612fa69190615176565b9050600060508261098f612fba9190615274565b612fc49190615176565b85612fcf91906150e2565b9050600b82612fde9190615176565b945084600c612fed9190615274565b600283612ffa91906151e0565b61300491906150e2565b9150848360318661301591906150e2565b60646130219190615274565b61302b91906151e0565b61303591906151e0565b92508298508197508096505050505050509193909250565b600073ffffffffffffffffffffffffffffffffffffffff168273ffffffffffffffffffffffffffffffffffffffff1614156130bd576040517f08c379a00000000000000000000000000000000000000000000000000000000081526004016130b4906154ba565b60405180910390fd5b6130c6816125d9565b15613106576040517f08c379a00000000000000000000000000000000000000000000000000000000081526004016130fd90615526565b60405180910390fd5b61311460008383600161261a565b61311d816125d9565b1561315d576040517f08c379a000000000000000000000000000000000000000000000000000000000815260040161315490615526565b60405180910390fd5b6001600360008473ffffffffffffffffffffffffffffffffffffffff1673ffffffffffffffffffffffffffffffffffffffff16815260200190815260200160002060008282540192505081905550816002600083815260200190815260200160002060006101000a81548173ffffffffffffffffffffffffffffffffffffffff021916908373ffffffffffffffffffffffffffffffffffffffff160217905550808273ffffffffffffffffffffffffffffffffffffffff16600073ffffffffffffffffffffffffffffffffffffffff167fddf252ad1be2c89b69c2b068fc378daa952ba7f163c4a11628f55a4df523b3ef60405160405180910390a4613267600083836001612740565b5050565b600080600090507a184f03e93ff9f4daa797ed6e38ed64bf6a1f01000000000000000083106132c9577a184f03e93ff9f4daa797ed6e38ed64bf6a1f01000000000000000083816132bf576132be614634565b5b0492506040810190505b6d04ee2d6d415b85acef81000000008310613306576d04ee2d6d415b85acef810000000083816132fc576132fb614634565b5b0492506020810190505b662386f26fc10000831061333557662386f26fc10000838161332b5761332a614634565b5b0492506010810190505b6305f5e100831061335e576305f5e100838161335457613353614634565b5b0492506008810190505b612710831061338357612710838161337957613378614634565b5b0492506004810190505b606483106133a6576064838161339c5761339b614634565b5b0492506002810190505b600a83106133b5576001810190505b80915050919050565b6000808273ffffffffffffffffffffffffffffffffffffffff163b119050919050565b604051806040016040528060008019168152602001600080191681525090565b50805461340d90613e9b565b6000825580601f1061341f575061343e565b601f01602090049060005260206000209081019061343d91906134c7565b5b50565b82805461344d90613e9b565b90600052602060002090601f01602090048101928261346f57600085556134b6565b82601f1061348857805160ff19168380011785556134b6565b828001600101855582156134b6579182015b828111156134b557825182559160200191906001019061349a565b5b5090506134c391906134c7565b5090565b5b808211156134e05760008160009055506001016134c8565b5090565b6000604051905090565b600080fd5b600080fd5b60007fffffffff0000000000000000000000000000000000000000000000000000000082169050919050565b61352d816134f8565b811461353857600080fd5b50565b60008135905061354a81613524565b92915050565b600060208284031215613566576135656134ee565b5b60006135748482850161353b565b91505092915050565b60008115159050919050565b6135928161357d565b82525050565b60006020820190506135ad6000830184613589565b92915050565b6000819050919050565b6135c6816135b3565b81146135d157600080fd5b50565b6000813590506135e3816135bd565b92915050565b6000602082840312156135ff576135fe6134ee565b5b600061360d848285016135d4565b91505092915050565b61361f816135b3565b82525050565b600060608201905061363a6000830186613616565b6136476020830185613616565b6136546040830184613616565b949350505050565b600081519050919050565b600082825260208201905092915050565b60005b8381101561369657808201518184015260208101905061367b565b838111156136a5576000848401525b50505050565b6000601f19601f8301169050919050565b60006136c78261365c565b6136d18185613667565b93506136e1818560208601613678565b6136ea816136ab565b840191505092915050565b6000602082019050818103600083015261370f81846136bc565b905092915050565b600073ffffffffffffffffffffffffffffffffffffffff82169050919050565b600061374282613717565b9050919050565b61375281613737565b82525050565b600060208201905061376d6000830184613749565b92915050565b61377c81613737565b811461378757600080fd5b50565b60008135905061379981613773565b92915050565b600080604083850312156137b6576137b56134ee565b5b60006137c48582860161378a565b92505060206137d5858286016135d4565b9150509250929050565b6000819050919050565b6137f2816137df565b82525050565b60408201600082015161380e60008501826137e9565b50602082015161382160208501826137e9565b50505050565b600060408201905061383c60008301846137f8565b92915050565b60008060408385031215613859576138586134ee565b5b6000613867858286016135d4565b9250506020613878858286016135d4565b9150509250929050565b60008060006060848603121561389b5761389a6134ee565b5b60006138a98682870161378a565b93505060206138ba8682870161378a565b92505060406138cb868287016135d4565b9150509250925092565b600080604083850312156138ec576138eb6134ee565b5b60006138fa858286016135d4565b925050602061390b8582860161378a565b9150509250929050565b600060ff82169050919050565b61392b81613915565b811461393657600080fd5b50565b60008135905061394881613922565b92915050565b600080fd5b600080fd5b600080fd5b60008083601f8401126139735761397261394e565b5b8235905067ffffffffffffffff8111156139905761398f613953565b5b6020830191508360018202830111156139ac576139ab613958565b5b9250929050565b600080600080606085870312156139cd576139cc6134ee565b5b60006139db878288016135d4565b94505060206139ec87828801613939565b935050604085013567ffffffffffffffff811115613a0d57613a0c6134f3565b5b613a198782880161395d565b925092505092959194509250565b613a3081613915565b82525050565b6000606082019050613a4b6000830186613616565b613a586020830185613616565b613a656040830184613a27565b949350505050565b600060208284031215613a8357613a826134ee565b5b6000613a918482850161378a565b91505092915050565b6000602082019050613aaf6000830184613616565b92915050565b613abe8161357d565b8114613ac957600080fd5b50565b600081359050613adb81613ab5565b92915050565b60008060408385031215613af857613af76134ee565b5b6000613b068582860161378a565b9250506020613b1785828601613acc565b9150509250929050565b6000608082019050613b366000830186613616565b613b4360208301856137f8565b613b506060830184613749565b949350505050565b600080600080600080600060e0888a031215613b7757613b766134ee565b5b6000613b858a828b016135d4565b9750506020613b968a828b016135d4565b9650506040613ba78a828b016135d4565b9550506060613bb88a828b016135d4565b9450506080613bc98a828b016135d4565b93505060a0613bda8a828b016135d4565b92505060c0613beb8a828b016135d4565b91505092959891949750929550565b600080fd5b7f4e487b7100000000000000000000000000000000000000000000000000000000600052604160045260246000fd5b613c37826136ab565b810181811067ffffffffffffffff82111715613c5657613c55613bff565b5b80604052505050565b6000613c696134e4565b9050613c758282613c2e565b919050565b600067ffffffffffffffff821115613c9557613c94613bff565b5b613c9e826136ab565b9050602081019050919050565b82818337600083830152505050565b6000613ccd613cc884613c7a565b613c5f565b905082815260208101848484011115613ce957613ce8613bfa565b5b613cf4848285613cab565b509392505050565b600082601f830112613d1157613d1061394e565b5b8135613d21848260208601613cba565b91505092915050565b60008060008060808587031215613d4457613d436134ee565b5b6000613d528782880161378a565b9450506020613d638782880161378a565b9350506040613d74878288016135d4565b925050606085013567ffffffffffffffff811115613d9557613d946134f3565b5b613da187828801613cfc565b91505092959194509250565b613db6816137df565b8114613dc157600080fd5b50565b600081359050613dd381613dad565b92915050565b600080600060608486031215613df257613df16134ee565b5b6000613e0086828701613dc4565b9350506020613e1186828701613dc4565b9250506040613e22868287016135d4565b9150509250925092565b60008060408385031215613e4357613e426134ee565b5b6000613e518582860161378a565b9250506020613e628582860161378a565b9150509250929050565b7f4e487b7100000000000000000000000000000000000000000000000000000000600052602260045260246000fd5b60006002820490506001821680613eb357607f821691505b60208210811415613ec757613ec6613e6c565b5b50919050565b7f4552433732313a20617070726f76616c20746f2063757272656e74206f776e6560008201527f7200000000000000000000000000000000000000000000000000000000000000602082015250565b6000613f29602183613667565b9150613f3482613ecd565b604082019050919050565b60006020820190508181036000830152613f5881613f1c565b9050919050565b7f4552433732313a20617070726f76652063616c6c6572206973206e6f7420746f60008201527f6b656e206f776e6572206f7220617070726f76656420666f7220616c6c000000602082015250565b6000613fbb603d83613667565b9150613fc682613f5f565b604082019050919050565b60006020820190508181036000830152613fea81613fae565b9050919050565b7f496e76616c69642061706172746d656e74000000000000000000000000000000600082015250565b6000614027601183613667565b915061403282613ff1565b602082019050919050565b600060208201905081810360008301526140568161401a565b9050919050565b7f4e487b7100000000000000000000000000000000000000000000000000000000600052603260045260246000fd5b7f4552433732313a2063616c6c6572206973206e6f7420746f6b656e206f776e6560008201527f72206f7220617070726f76656400000000000000000000000000000000000000602082015250565b60006140e8602d83613667565b91506140f38261408c565b604082019050919050565b60006020820190508181036000830152614117816140db565b9050919050565b7f4e6f74207468652061706172746d656e74206f776e6572000000000000000000600082015250565b6000614154601783613667565b915061415f8261411e565b602082019050919050565b6000602082019050818103600083015261418381614147565b9050919050565b7f496e76616c6964207265736572766174696f6e00000000000000000000000000600082015250565b60006141c0601383613667565b91506141cb8261418a565b602082019050919050565b600060208201905081810360008301526141ef816141b3565b9050919050565b7f596f7520617265206e6f7420746865206f776e65720000000000000000000000600082015250565b600061422c601583613667565b9150614237826141f6565b602082019050919050565b6000602082019050818103600083015261425b8161421f565b9050919050565b7f496e76616c696420726174696e67000000000000000000000000000000000000600082015250565b6000614298600e83613667565b91506142a382614262565b602082019050919050565b600060208201905081810360008301526142c78161428b565b9050919050565b7f4e487b7100000000000000000000000000000000000000000000000000000000600052601160045260246000fd5b6000614308826135b3565b9150614313836135b3565b925082821015614326576143256142ce565b5b828203905092915050565b600061433d8385613667565b935061434a838584613cab565b614353836136ab565b840190509392505050565b60006080820190506143736000830188613616565b6143806020830187613616565b61438d6040830186613a27565b81810360608301526143a0818486614331565b90509695505050505050565b7f496e76616c696420616d6f756e74000000000000000000000000000000000000600082015250565b60006143e2600e83613667565b91506143ed826143ac565b602082019050919050565b60006020820190508181036000830152614411816143d5565b9050919050565b600081905092915050565b50565b6000614433600083614418565b915061443e82614423565b600082019050919050565b600061445482614426565b9150819050919050565b7f4661696c656420746f2073656e64204574686572000000000000000000000000600082015250565b6000614494601483613667565b915061449f8261445e565b602082019050919050565b600060208201905081810360008301526144c381614487565b9050919050565b7f4552433732313a20696e76616c696420746f6b656e2049440000000000000000600082015250565b6000614500601883613667565b915061450b826144ca565b602082019050919050565b6000602082019050818103600083015261452f816144f3565b9050919050565b7f4552433732313a2061646472657373207a65726f206973206e6f74206120766160008201527f6c6964206f776e65720000000000000000000000000000000000000000000000602082015250565b6000614592602983613667565b915061459d82614536565b604082019050919050565b600060208201905081810360008301526145c181614585565b9050919050565b7f496e76616c696420646174650000000000000000000000000000000000000000600082015250565b60006145fe600c83613667565b9150614609826145c8565b602082019050919050565b6000602082019050818103600083015261462d816145f1565b9050919050565b7f4e487b7100000000000000000000000000000000000000000000000000000000600052601260045260246000fd5b600061466e826135b3565b9150614679836135b3565b92508261468957614688614634565b5b828204905092915050565b7f556e617661696c61626c65206461746573000000000000000000000000000000600082015250565b60006146ca601183613667565b91506146d582614694565b602082019050919050565b600060208201905081810360008301526146f9816146bd565b9050919050565b600061470b826135b3565b9150614716836135b3565b9250817fffffffffffffffffffffffffffffffffffffffffffffffffffffffffffffffff048311821515161561474f5761474e6142ce565b5b828202905092915050565b6000614765826135b3565b9150614770836135b3565b9250827fffffffffffffffffffffffffffffffffffffffffffffffffffffffffffffffff038211156147a5576147a46142ce565b5b828201905092915050565b60006080820190506147c56000830187613616565b6147d26020830186613616565b6147df6040830185613616565b6147ec6060830184613616565b95945050505050565b600081905092915050565b600061480b8261365c565b61481581856147f5565b9350614825818560208601613678565b80840191505092915050565b600061483d8285614800565b91506148498284614800565b91508190509392505050565b61485e816137df565b82525050565b60006060820190506148796000830186613616565b6148866020830185614855565b6148936040830184614855565b949350505050565b7f4552433732313a207472616e736665722066726f6d20696e636f72726563742060008201527f6f776e6572000000000000000000000000000000000000000000000000000000602082015250565b60006148f7602583613667565b91506149028261489b565b604082019050919050565b60006020820190508181036000830152614926816148ea565b9050919050565b7f4552433732313a207472616e7366657220746f20746865207a65726f2061646460008201527f7265737300000000000000000000000000000000000000000000000000000000602082015250565b6000614989602483613667565b91506149948261492d565b604082019050919050565b600060208201905081810360008301526149b88161497c565b9050919050565b7f4552433732313a20617070726f766520746f2063616c6c657200000000000000600082015250565b60006149f5601983613667565b9150614a00826149bf565b602082019050919050565b60006020820190508181036000830152614a24816149e8565b9050919050565b6000614a36826135b3565b91507fffffffffffffffffffffffffffffffffffffffffffffffffffffffffffffffff821415614a6957614a686142ce565b5b600182019050919050565b6000819050919050565b614a8f614a8a826137df565b614a74565b82525050565b6000614aa18284614a7e565b60208201915081905092915050565b7f7b226e616d65223a2257656c636f6d7920230000000000000000000000000000600082015250565b6000614ae66012836147f5565b9150614af182614ab0565b601282019050919050565b7f222c20226465736372697074696f6e223a225468616e6b20796f7520666f722060008201527f63686f6f73696e6720757320666f7220796f757220726563656e74207374617960208201527f2e205765206c6f6f6b20666f727761726420746f2077656c636f6d696e67207960408201527f6f752120426573742072656761726473222c2022696d616765223a2200000000606082015250565b6000614ba4607c836147f5565b9150614baf82614afc565b607c82019050919050565b6000819050919050565b614bd5614bd0826135b3565b614bba565b82525050565b7f222c2261747472696275746573223a5b7b2274726169745f74797065223a202260008201527f6c61746974756465222c202276616c7565223a20220000000000000000000000602082015250565b6000614c376035836147f5565b9150614c4282614bdb565b603582019050919050565b7f227d2c7b2274726169745f74797065223a20226c6f6e676974756465222c202260008201527f76616c7565223a20220000000000000000000000000000000000000000000000602082015250565b6000614ca96029836147f5565b9150614cb482614c4d565b602982019050919050565b7f227d2c7b22646973706c61795f74797065223a202264617465222c202274726160008201527f69745f74797065223a20227374617274222c202276616c7565223a0000000000602082015250565b6000614d1b603b836147f5565b9150614d2682614cbf565b603b82019050919050565b7f7d2c000000000000000000000000000000000000000000000000000000000000600082015250565b6000614d676002836147f5565b9150614d7282614d31565b600282019050919050565b7f7b22646973706c61795f74797065223a202264617465222c202274726169745f60008201527f74797065223a2022656e64222c202276616c7565223a00000000000000000000602082015250565b6000614dd96036836147f5565b9150614de482614d7d565b603682019050919050565b7f7d00000000000000000000000000000000000000000000000000000000000000600082015250565b6000614e256001836147f5565b9150614e3082614def565b600182019050919050565b7f5d7d000000000000000000000000000000000000000000000000000000000000600082015250565b6000614e716002836147f5565b9150614e7c82614e3b565b600282019050919050565b6000614e9282614ad9565b9150614e9e8289614800565b9150614ea982614b97565b9150614eb58288614bc4565b602082019150614ec482614c2a565b9150614ed08287614800565b9150614edb82614c9c565b9150614ee78286614800565b9150614ef282614d0e565b9150614efe8285614800565b9150614f0982614d5a565b9150614f1482614dcc565b9150614f208284614800565b9150614f2b82614e18565b9150614f3682614e64565b9150819050979650505050505050565b7f646174613a6170706c69636174696f6e2f6a736f6e3b6261736536342c000000600082015250565b6000614f7c601d836147f5565b9150614f8782614f46565b601d82019050919050565b6000614f9d82614f6f565b9150614fa98284614800565b915081905092915050565b7f45524337323155524953746f726167653a2055524920736574206f66206e6f6e60008201527f6578697374656e7420746f6b656e000000000000000000000000000000000000602082015250565b6000615010602e83613667565b915061501b82614fb4565b604082019050919050565b6000602082019050818103600083015261503f81615003565b9050919050565b7f4552433732313a207472616e7366657220746f206e6f6e20455243373231526560008201527f63656976657220696d706c656d656e7465720000000000000000000000000000602082015250565b60006150a2603283613667565b91506150ad82615046565b604082019050919050565b600060208201905081810360008301526150d181615095565b9050919050565b6000819050919050565b60006150ed826150d8565b91506150f8836150d8565b9250827f800000000000000000000000000000000000000000000000000000000000000001821260008412151615615133576151326142ce565b5b827f7fffffffffffffffffffffffffffffffffffffffffffffffffffffffffffffff01821360008412161561516b5761516a6142ce565b5b828203905092915050565b6000615181826150d8565b915061518c836150d8565b92508261519c5761519b614634565b5b600160000383147f8000000000000000000000000000000000000000000000000000000000000000831416156151d5576151d46142ce565b5b828205905092915050565b60006151eb826150d8565b91506151f6836150d8565b9250817f7fffffffffffffffffffffffffffffffffffffffffffffffffffffffffffffff03831360008312151615615231576152306142ce565b5b817f8000000000000000000000000000000000000000000000000000000000000000038312600083121615615269576152686142ce565b5b828201905092915050565b600061527f826150d8565b915061528a836150d8565b9250827f7fffffffffffffffffffffffffffffffffffffffffffffffffffffffffffffff04821160008413600084131616156152c9576152c86142ce565b5b817f80000000000000000000000000000000000000000000000000000000000000000583126000841260008413161615615306576153056142ce565b5b827f80000000000000000000000000000000000000000000000000000000000000000582126000841360008412161615615343576153426142ce565b5b827f7fffffffffffffffffffffffffffffffffffffffffffffffffffffffffffffff05821260008412600084121616156153805761537f6142ce565b5b828202905092915050565b600081519050919050565b600082825260208201905092915050565b60006153b28261538b565b6153bc8185615396565b93506153cc818560208601613678565b6153d5816136ab565b840191505092915050565b60006080820190506153f56000830187613749565b6154026020830186613749565b61540f6040830185613616565b818103606083015261542181846153a7565b905095945050505050565b60008151905061543b81613524565b92915050565b600060208284031215615457576154566134ee565b5b60006154658482850161542c565b91505092915050565b7f4552433732313a206d696e7420746f20746865207a65726f2061646472657373600082015250565b60006154a4602083613667565b91506154af8261546e565b602082019050919050565b600060208201905081810360008301526154d381615497565b9050919050565b7f4552433732313a20746f6b656e20616c7265616479206d696e74656400000000600082015250565b6000615510601c83613667565b915061551b826154da565b602082019050919050565b6000602082019050818103600083015261553f81615503565b905091905056fe4142434445464748494a4b4c4d4e4f505152535455565758595a6162636465666768696a6b6c6d6e6f707172737475767778797a303132333435363738392b2fa2646970667358221220463968b35502bc72627ef1b5e99a73b9f0d0df69cacfe1fd96ebdd16bf38b6bb64736f6c63430008080033",
  "linkReferences": {},
  "deployedLinkReferences": {}
}